{
  "_format": "hh-sol-artifact-1",
  "contractName": "ContractLogic",
  "sourceName": "contracts/contract.sol",
  "abi": [
    {
      "inputs": [
        {
          "internalType": "uint256",
          "name": "variantsNumber",
          "type": "uint256"
        },
        {
          "internalType": "uint256",
          "name": "initialPlayerBallance",
          "type": "uint256"
        }
      ],
      "stateMutability": "nonpayable",
      "type": "constructor"
    },
    {
      "inputs": [
        {
          "internalType": "bytes32",
          "name": "playerName",
          "type": "bytes32"
        },
        {
          "internalType": "bytes32",
          "name": "secret",
          "type": "bytes32"
        }
      ],
      "name": "createPlayer",
      "outputs": [
        {
          "internalType": "bytes32",
          "name": "",
          "type": "bytes32"
        }
      ],
      "stateMutability": "nonpayable",
      "type": "function"
    },
    {
      "inputs": [
        {
          "internalType": "bytes32",
          "name": "playerName",
          "type": "bytes32"
        },
        {
          "internalType": "bytes32",
          "name": "secret",
          "type": "bytes32"
        }
      ],
      "name": "getPlayer",
      "outputs": [],
      "stateMutability": "view",
      "type": "function"
    },
    {
      "inputs": [
        {
          "internalType": "bytes32",
          "name": "playerName",
          "type": "bytes32"
        },
        {
          "internalType": "bytes32",
          "name": "secret",
          "type": "bytes32"
        },
        {
          "internalType": "uint256",
          "name": "amount",
          "type": "uint256"
        }
      ],
      "name": "increaseBallance",
      "outputs": [
        {
          "internalType": "uint256",
          "name": "",
          "type": "uint256"
        }
      ],
      "stateMutability": "nonpayable",
      "type": "function"
    },
    {
      "inputs": [
        {
          "internalType": "bytes32",
          "name": "playerName",
          "type": "bytes32"
        },
        {
          "internalType": "bytes32",
          "name": "secret",
          "type": "bytes32"
        },
        {
          "internalType": "enum ContractLogic.BetValue",
          "name": "betOn",
          "type": "uint8"
        },
        {
          "internalType": "uint256",
          "name": "amount",
          "type": "uint256"
        }
      ],
      "name": "placeBet",
      "outputs": [
        {
          "internalType": "bool",
          "name": "",
          "type": "bool"
        }
      ],
      "stateMutability": "nonpayable",
      "type": "function"
    },
    {
      "inputs": [
        {
          "internalType": "uint256",
          "name": "number",
          "type": "uint256"
        }
      ],
      "name": "random",
      "outputs": [
        {
          "internalType": "uint256",
          "name": "",
          "type": "uint256"
        }
      ],
      "stateMutability": "view",
      "type": "function"
    },
    {
      "inputs": [],
      "name": "spin",
      "outputs": [
        {
          "internalType": "enum ContractLogic.BetValue",
          "name": "",
          "type": "uint8"
        }
      ],
      "stateMutability": "nonpayable",
      "type": "function"
    }
  ],
  "bytecode": "0x60806040526000805534801561001457600080fd5b50604051610ccd380380610ccd8339818101604052604081101561003757600080fd5b810190808051906020019092919080519060200190929190505050816005819055508060068190555033600160006101000a81548173ffffffffffffffffffffffffffffffffffffffff021916908373ffffffffffffffffffffffffffffffffffffffff1602179055506100af6100b660201b60201c565b5050610147565b6002600460006002808111156100c857fe5b60028111156100d357fe5b8152602001908152602001600020819055506002600460008060028111156100f757fe5b600281111561010257fe5b815260200190815260200160002081905550600654600460006001600281111561012857fe5b600281111561013357fe5b815260200190815260200160002081905550565b610b77806101566000396000f3fe608060405234801561001057600080fd5b50600436106100625760003560e01c806378fc2566146100675780639e8ee51b1461009f578063af132b9714610104578063b863bd3714610150578063f0acd7d514610192578063f1702127146101bb575b600080fd5b61009d6004803603604081101561007d57600080fd5b810190808035906020019092919080359060200190929190505050610211565b005b6100ec600480360360808110156100b557600080fd5b810190808035906020019092919080359060200190929190803560ff16906020019092919080359060200190929190505050610328565b60405180821515815260200191505060405180910390f35b61013a6004803603604081101561011a57600080fd5b810190808035906020019092919080359060200190929190505050610588565b6040518082815260200191505060405180910390f35b61017c6004803603602081101561016657600080fd5b81019080803590602001909291905050506106a0565b6040518082815260200191505060405180910390f35b61019a610705565b604051808260028111156101aa57fe5b815260200191505060405180910390f35b6101fb600480360360608110156101d157600080fd5b8101908080359060200190929190803590602001909291908035906020019092919050505061091b565b6040518082815260200191505060405180910390f35b8180600260008381526020019081526020016000206000015414610280576040517f08c379a0000000000000000000000000000000000000000000000000000000008152600401808060200182810382526025815260200180610b1d6025913960400191505060405180910390fd5b82828060026000848152602001908152602001600020600301541461030d576040517f08c379a000000000000000000000000000000000000000000000000000000000815260040180806020018281038252601b8152602001807f53656372657420706872617365206973206e6f742076616c69642e000000000081525060200191505060405180910390fd5b60026000868152602001908152602001600020505050505050565b60008480600260008381526020019081526020016000206000015414610399576040517f08c379a0000000000000000000000000000000000000000000000000000000008152600401808060200182810382526025815260200180610b1d6025913960400191505060405180910390fd5b858580600260008481526020019081526020016000206003015414610426576040517f08c379a000000000000000000000000000000000000000000000000000000000815260040180806020018281038252601b8152602001807f53656372657420706872617365206973206e6f742076616c69642e000000000081525060200191505060405180910390fd5b878580600260008481526020019081526020016000206001015410156104b4576040517f08c379a00000000000000000000000000000000000000000000000000000000081526004018080602001828103825260148152602001807f42616c6c616e636520697320746f6f206c6f772e00000000000000000000000081525060200191505060405180910390fd5b600760405180606001604052808c81526020018a60028111156104d357fe5b81526020018981525090806001815401808255809150506001900390600052602060002090600302016000909190919091506000820151816000015560208201518160010160006101000a81548160ff0219169083600281111561053357fe5b021790555060408201518160020155505086600260008c81526020019081526020016000206001015403600260008c815260200190815260200160002060010181905550600195505050505050949350505050565b60008280600260008381526020019081526020016000206000015414156105fa576040517f08c379a0000000000000000000000000000000000000000000000000000000008152600401808060200182810382526025815260200180610af86025913960400191505060405180910390fd5b6040518060c00160405280858152602001600654815260200160011515815260200184815260200160008152602001600081525060026000868152602001908152602001600020600082015181600001556020820151816001015560408201518160020160006101000a81548160ff021916908315150217905550606082015181600301556080820151816004015560a082015181600501559050508391505092915050565b600081424433604051602001808481526020018381526020018273ffffffffffffffffffffffffffffffffffffffff1660601b815260140193505050506040516020818303038152906040528051906020012060001c816106fd57fe5b069050919050565b6000806107136005546106a0565b9050600061072082610a5f565b905060006004600083600281111561073457fe5b600281111561073f57fe5b815260200190815260200160002054905060005b60078054905081101561087b5760006007828154811061076f57fe5b9060005260206000209060030201905083600281111561078b57fe5b8160010160009054906101000a900460ff1660028111156107a857fe5b141561083057828160020154026002600083600001548152602001908152602001600020600101540160026000836000015481526020019081526020016000206001018190555060016002600083600001548152602001908152602001600020600401540160026000836000015481526020019081526020016000206004018190555061086d565b6001600260008360000154815260200190815260200160002060050154016002600083600001548152602001908152602001600020600501819055505b508080600101915050610753565b506040518060600160405280600054815260200183600281111561089b57fe5b81526020014281525060036000805481526020019081526020016000206000820151816000015560208201518160010160006101000a81548160ff021916908360028111156108e657fe5b021790555060408201518160020155905050600160005401600081905550600760006109129190610a98565b81935050505090565b6000838060026000838152602001908152602001600020600001541461098c576040517f08c379a0000000000000000000000000000000000000000000000000000000008152600401808060200182810382526025815260200180610b1d6025913960400191505060405180910390fd5b848480600260008481526020019081526020016000206003015414610a19576040517f08c379a000000000000000000000000000000000000000000000000000000000815260040180806020018281038252601b8152602001807f53656372657420706872617365206973206e6f742076616c69642e000000000081525060200191505060405180910390fd5b600085600260008a81526020019081526020016000206001015401905080600260008a815260200190815260200160002060010181905550809450505050509392505050565b600080821415610a725760019050610a93565b600060028381610a7e57fe5b061415610a8e5760009050610a93565b600290505b919050565b5080546000825560030290600052602060002090810190610ab99190610abc565b50565b5b80821115610af3576000808201600090556001820160006101000a81549060ff0219169055600282016000905550600301610abd565b509056fe506c6179657220776974682074686973206e616d6520616c7265616479206578697374732e506c6179657220776974682074686973206e616d6520646f6573206e6f742065786973742ea26469706673582212206577f432baed32b7543da32f67dc53902d7cab0963f9a411a87316990871645564736f6c63430007030033",
  "linkReferences": {},
  "deployedLinkReferences": {}
}